{"abi":[{"type":"constructor","inputs":[],"stateMutability":"nonpayable"},{"type":"function","name":"EMPTY_TODO","inputs":[],"outputs":[{"name":"todoID","type":"uint256","internalType":"uint256"},{"name":"todoTitle","type":"string","internalType":"string"},{"name":"todoDescription","type":"string","internalType":"string"},{"name":"completed","type":"bool","internalType":"bool"},{"name":"todoOwner","type":"address","internalType":"address"}],"stateMutability":"view"},{"type":"function","name":"ownerToTodos","inputs":[{"name":"","type":"address","internalType":"address"},{"name":"","type":"uint256","internalType":"uint256"}],"outputs":[{"name":"todoID","type":"uint256","internalType":"uint256"},{"name":"todoTitle","type":"string","internalType":"string"},{"name":"todoDescription","type":"string","internalType":"string"},{"name":"completed","type":"bool","internalType":"bool"},{"name":"todoOwner","type":"address","internalType":"address"}],"stateMutability":"view"},{"type":"function","name":"todos","inputs":[{"name":"","type":"uint256","internalType":"uint256"}],"outputs":[{"name":"todoID","type":"uint256","internalType":"uint256"},{"name":"todoTitle","type":"string","internalType":"string"},{"name":"todoDescription","type":"string","internalType":"string"},{"name":"completed","type":"bool","internalType":"bool"},{"name":"todoOwner","type":"address","internalType":"address"}],"stateMutability":"view"}],"bytecode":{"object":"0x5f608081815261012082815260a081905261016060405261014083815260c05260e083905261010083905282805590919060019061003d9082610201565b50604082015160028201906100529082610201565b506060820151600390910180546080909301516001600160a01b031661010002610100600160a81b0319921515929092166001600160a81b0319909316929092171790553480156100a1575f5ffd5b505f808052600460205280547f17ef568e3e12ab5b9c7254a8d58478811de00f9e6eb34345acd53bf8fd09d3ec9081557f17ef568e3e12ab5b9c7254a8d58478811de00f9e6eb34345acd53bf8fd09d3ed6100fd6001826102be565b50600281810190610110908401826102be565b506003918201805491909201805460ff909216151560ff1983168117825592546001600160a01b03610100918290041602610100600160a81b03199093166001600160a81b03199092169190911791909117905561038a565b634e487b7160e01b5f52604160045260245ffd5b600181811c9082168061019157607f821691505b6020821081036101af57634e487b7160e01b5f52602260045260245ffd5b50919050565b601f8211156101fc57805f5260205f20601f840160051c810160208510156101da5750805b601f840160051c820191505b818110156101f9575f81556001016101e6565b50505b505050565b81516001600160401b0381111561021a5761021a610169565b61022e81610228845461017d565b846101b5565b6020601f821160018114610263575f83156102495750848201515b600184901b5f19600386901b1c198216175b8555506101f9565b5f84815260208120601f198516915b828110156102925787850151825560209485019460019092019101610272565b50848210156102af57868401515f19600387901b60f8161c191681555b50505050600190811b01905550565b8181036102c9575050565b6102d3825461017d565b6001600160401b038111156102ea576102ea610169565b6102f881610228845461017d565b5f601f821160018114610327575f8315610249575081850154600184901b5f19600386901b1c1982161761025b565b5f8581526020808220868352908220601f198616925b8381101561035d578286015482556001958601959091019060200161033d565b508583101561037a57818501545f19600388901b60f8161c191681555b5050505050600190811b01905550565b61035a806103975f395ff3fe608060405234801561000f575f5ffd5b506004361061003f575f3560e01c8063b6d95cc314610043578063b7c4788c14610070578063bc8bc2b414610078575b5f5ffd5b610056610051366004610225565b61008b565b604051610067959493929190610288565b60405180910390f35b6100566101f1565b6100566100863660046102d5565b610204565b6005602052815f5260405f2081815481106100a4575f80fd5b905f5260205f2090600402015f9150915050805f0154908060010180546100ca906102ec565b80601f01602080910402602001604051908101604052809291908181526020018280546100f6906102ec565b80156101415780601f1061011857610100808354040283529160200191610141565b820191905f5260205f20905b81548152906001019060200180831161012457829003601f168201915b505050505090806002018054610156906102ec565b80601f0160208091040260200160405190810160405280929190818152602001828054610182906102ec565b80156101cd5780601f106101a4576101008083540402835291602001916101cd565b820191905f5260205f20905b8154815290600101906020018083116101b057829003601f168201915b5050506003909301549192505060ff8116906001600160a01b036101009091041685565b5f8054600180549192916100ca906102ec565b60046020525f9081526040902080546001820180549192916100ca906102ec565b5f5f60408385031215610236575f5ffd5b82356001600160a01b038116811461024c575f5ffd5b946020939093013593505050565b5f81518084528060208401602086015e5f602082860101526020601f19601f83011685010191505092915050565b85815260a060208201525f6102a060a083018761025a565b82810360408401526102b2818761025a565b941515606084015250506001600160a01b03919091166080909101529392505050565b5f602082840312156102e5575f5ffd5b5035919050565b600181811c9082168061030057607f821691505b60208210810361031e57634e487b7160e01b5f52602260045260245ffd5b5091905056fea26469706673582212207be9e3085de0df7ccc09469604ad1990f0c075d26a392b6c33f1840886f8b0e264736f6c634300081c0033","linkReferences":{}},"methodIdentifiers":{"EMPTY_TODO()":"b7c4788c","ownerToTodos(address,uint256)":"b6d95cc3","todos(uint256)":"bc8bc2b4"},"id":39}